:020000040800F2
:1000000000500020CD2100089D0100089F0100083C
:10001000A1010008A3010008A501000800000000DC
:100020000000000000000000000000005116000861
:10003000A701000800000000D116000815170008ED
:1000400015220008152200081522000815220008B4
:1000500015220008152200081522000815220008A4
:100060001522000815220008152200081522000894
:100070001522000815220008152200081522000884
:100080001522000815220008152200081522000874
:100090001522000815220008152200081522000864
:1000A0001522000815220008152200085101000839
:1000B0005901000815220008152200081522000821
:1000C0001522000815220008152200081522000834
:1000D0001522000815220008152200081522000824
:1000E0001522000815220008152200080000000053
:1000F0000000000000000000000000000000000000
:0C01000000000000000000005FF808F1A3
:1001100010B5054C237833B9044B13B10448AFF341
:1001200000800123237010BD180000200000000093
:100130008C22000808B5034B1BB103490348AFF3F9
:10014000008008BD000000001C0000208C22000878
:1001500008B500F091F908BD08B500F08BFA08BDAC
:1001600008B501F0C1FF01F0E7FF00F01DF800F055
:1001700032F800F0C9FCFEE74FF0500383F311881A
:10018000BFF36F8FBFF34F8FFEE74FF0500383F342
:100190001188BFF36F8FBFF34F8FFEE77047FEE705
:1001A000FEE7FEE7FEE7704700B585B01E238DF839
:1001B00004301C238DF80530022302938023ADF810
:1001C0000C3001A800F0BAFA10B905B05DF804FBD4
:1001D0004FF0FF30F9E708B500F0F0FA00B908BDBC
:1001E0004FF0FF30FBE70000044B98760022DA76F0
:1001F00019775A7708449877704700BF3400002079
:1002000000B583B00123ADF8043048238DF80730E2
:1002100003238DF8063001A9094801F015FC094BAC
:10022000002283F821204FF08040038C9BB243F0E2
:1002300002030384022101F0EDFE03B05DF804FB2C
:10024000000801403400002030B583B00B4C012180
:10025000204601F052FC0125ADF8045014238DF81E
:10026000073003238DF8063001A9204601F0ECFB8E
:100270002946204601F041FC03B030BD0008014092
:1002800030B589B001214FF4006001F03BFC05A8B6
:1002900001F000FE1D4B1B681D4AA2FB03239B0CB3
:1002A000013BADF814304FF6FF73ADF81830002560
:1002B000ADF81650174C05A9204601F05BFD01A8CA
:1002C00001F0F1FDADF80450ADF80650ADF80A505C
:1002D00001A9204601F098FD2946204601F021FEA3
:1002E0002A460221204601F010FE0121204601F09D
:1002F000FAFD0121204601F0E8FD074B602283F85A
:100300001B234FF000621A6009B030BD14000020BA
:1003100083DE1B43002C014000E100E070B588B093
:100320000121084601F0FCFB0121042001F0EAFB59
:100330000124ADF81C4048238DF81F3003238DF8AD
:100340001E3007A9204801F07FFB04A801F0A2FDA0
:100350001E4B1B681E4AA2FB03239B0C013BADF8FE
:1003600010304FF6FF73ADF8143004A94FF0804001
:1003700001F000FD01A801F0A0FD0025ADF804503A
:100380000226ADF80660ADF80840ADF80A500F231C
:10039000ADF80C3001A94FF0804001F0FBFD2A467A
:1003A00031464FF0804001F0B0FD21464FF08040D3
:1003B00001F08BFD074B702283F81C234FF0805215
:1003C0001A6008B070BD00BF000801401400002092
:1003D00083DE1B4300E100E0F0B583B0234B1F7BBD
:1003E0005E7B32E09DF804709DF80560314638462A
:1003F000FFF7FAFE002202214FF0804001F085FD58
:1004000000214FF0804001F060FDFFF71DFF174B0A
:10041000002283F820200124DC772146144801F0D3
:100420006EFB144DAB8C9BB250339BB2AB8602215A
:10043000284601F0EFFD22460221284601F065FD25
:100440004FF0FF31204600F02BFE084C00234FF008
:10045000FF321946606800F0BCFF00231A4601A96C
:10046000A06800F0B6FF0128BCD0BFE73400002030
:1004700000080140002C014030B583B002217A48C9
:1004800001F0BCFD08B903B030BD0221764801F08F
:10049000C1FD00230193754BDB7F013B052B00F26F
:1004A000DA80DFE803F0031A315A94AB0121704877
:1004B00001F023FB02256D4BDD776B4CA38C9BB2C7
:1004C00050339BB2A3862946204601F0A3FD0122AA
:1004D0002946204601F019FDD5E70121644801F0C5
:1004E0000EFB624B0322DA775F4CA38C9BB2323354
:1004F0009BB2A3860221204601F08CFD012202213D
:10050000204601F002FDBEE70121594801F0F5FA4D
:10051000564B0422DA7793F8201093F82020D24328
:1005200002F0070203EBD1039B7E43FA02F212F0C2
:10053000010F10D046234C4CA28C92B213449BB2B4
:10054000A3860221204601F065FD012202212046FA
:1005500001F0DBFC97E71A23EDE7444A92F82030DC
:100560000133DBB282F8203092F82030DBB2272B47
:1005700016D801213E4801F0C2FA3C4B0322DA773B
:10058000394CA38C9BB232339BB2A3860221204606
:1005900001F040FD01220221204601F0B6FC72E785
:1005A0000121334801F0ABFA304B0522DA772E4CAB
:1005B000A38C9BB232339BB2A3860221204601F06A
:1005C00029FD01220221204601F09FFC5BE7012169
:1005D000274801F092FA254B0622DA77224CA38CA9
:1005E0009BB20A339BB2A3860221204601F012FD82
:1005F00001220221204601F088FC44E7002202216A
:10060000194801F082FC194C0025E577FFF7F8FD49
:1006100029464FF0804001F08BFC01214FF08040D3
:1006200001F053FC012202214FF0804001F06DFCEB
:1006300001A9206800F070FD019B002B3FF423AF5F
:100640004FF0E0234FF08052C3F8042DBFF34F8FDB
:10065000BFF36F8F17E700220221034801F055FC1A
:10066000024B0022DA770EE7002C01403400002014
:100670000008014000B583B002214FF0804001F036
:10068000BDFC10B903B05DF804FB02214FF08040BF
:1006900001F0C0FC00230193274B93F821308BB964
:1006A0004FF0804001F0A7FC234B5884012283F8CF
:1006B00021204FF08042138C9BB223F002039BB2A7
:1006C0001384DFE74FF0804001F095FC1A4B5B8C00
:1006D0009BB2834228D8184B5B8C9BB2C31A164A34
:1006E000002182F821104FF080410A8C92B242F032
:1006F00002020A84A3F58C43503B42F6E062934227
:10070000C0D801A90C4B586800F01FFE019B002BBC
:10071000B8D04FF0E0234FF08052C3F8042DBFF360
:100720004F8FBFF36F8FADE7034B5B8C9BB2C01A4B
:1007300000F58033D3E700BF3400002078B302789F
:10074000632A2FD84278322A2FD810B51A4C04F1D8
:100750000C0C07C88CE80700002121766176032283
:10076000012000F0D5FD606010B3002202210120BD
:1007700000F0CEFDA06060B14FF4407001F05AF976
:10078000FFF77EFDFFF7CAFD0B4B01221A76002012
:1007900010BD606800F0DCFE6FF00100F8E74FF07C
:1007A000FF3070474FF0FF3070474FF0FF30704719
:1007B0006FF00100ECE700BF34000020144B1B7EFB
:1007C000EBB1134B5B7EEBB900B583B0104A0192DD
:1007D000136900930023928A0E490F4800F062F9D2
:1007E000012812D1012202214FF0804001F08DFB3F
:1007F000074B01225A76002003B05DF804FB6FF02E
:10080000030070476FF0020070476FF00100F3E7DC
:1008100034000020A4220008D9030008084B1B68FC
:100820001B6823B9074B4FF0FF321A607047044B27
:100830001B68DB68DB685A68024B1A60704700BFB0
:100840005C0000204801002010B50446006B01F058
:10085000C7F8204601F0C4F810BD2DE9F0478046E6
:100860000D4617469946089EDDF824A00A9C920082
:10087000A521206B01F002FD236B07F18042013AB4
:1008800003EB820727F007074FF0000CBCF10F0FB6
:100890000BD815F80C2004EB0C0383F8342015F862
:1008A0000C3013B10CF1010CF0E7002384F8433055
:1008B000072E00D90726E662E66400252565201D7F
:1008C00000F058FE04F1180000F054FE2461C6F157
:1008D0000806A6616462656584F858504A46414638
:1008E000384600F0A3FE2060BAF1000F01D0CAF82C
:1008F0000040BDE8F087000038B5002407E004EBB5
:10090000840293000E48184400F029FE0134072C9D
:10091000F5D90C4D284600F022FE0B4C204600F085
:100920001EFE0A4800F01BFE094800F018FE0948A8
:1009300000F015FE084B1D60084B1C6038BD00BF61
:10094000640000201C010020300100205001002024
:100950007C010020680100205C0000206000002075
:1009600010B5044600F086FE224A13680133136076
:10097000214B1B685BB1214B1B686BB91E4B1B687D
:10098000DA6AE36A9A4207D81B4B1C6004E01A4BF0
:100990001C601368012B29D0194A136801331360B6
:1009A0006364E06A01238340164A11680B431360B5
:1009B00000EB8000211D144B03EB800000F0DDFDF7
:1009C00000F072FE0D4B1B687BB10B4B1B68DA6AA3
:1009D000E36A9A4209D24FF0E0234FF08052C3F805
:1009E000042DBFF34F8FBFF36F8F10BDFFF784FF50
:1009F000D2E700BF0401002058000020640100205D
:100A000014010020180100206400002070B5044685
:100A10000D461D4B1E681D4B1868043000F0D1FDBB
:100A200050B91A4B1B68DA6A012303FA02F218491B
:100A30000B6823EA02030B60B4F1FF3F0DD034448E
:100A4000124B1B685C60A64210D9124B18680F4B02
:100A50001968043100F09CFD70BD002DEFD00B4BE8
:100A6000196804310C4800F088FDF5E70B4B186855
:100A7000064B1968043100F08BFD094B1B68A3423B
:100A8000EAD9074B1C60E7E79001002058000020DE
:100A90001801002060000020680100205C00002098
:100AA000480100202DE9F04385B0074688461446EA
:100AB0001E46900000F020FFF0B181465C2000F05F
:100AC0001BFF0546A0B1C0F83090D5B100230393B9
:100AD00002950D9B01930C9B0093334622464146A1
:100AE0003846FFF7BAFE2846FFF73AFF012005E037
:100AF000484600F075FFE8E74FF0FF3005B0BDE86D
:100B0000F0834FF0FF30F9E700B583B0134B01934A
:100B100000230093782212491248FFF7C3FF0128EF
:100B200005D0B0F1FF3F17D003B05DF804FB4FF0E4
:100B3000500383F31188BFF36F8FBFF34F8F0A4BBE
:100B40004FF0FF321A60094B01221A60084B002255
:100B50001A6000F0FFFDE7E772B6FEE744010020EF
:100B6000B0220008D10D00084801002064010020D7
:100B700090010020024A136801331360704700BFE0
:100B800010010020F8B5364B1B68002B5DD1354BAA
:100B90001D6801351D608DB9334B1B681B680BB197
:100BA00072B6FEE7304A1168304B18681060196061
:100BB0002F4A136801331360FFF730FE2D4B1B687B
:100BC000AB4238D900272C4B1B68DB6A03EB83034D
:100BD0009A002A4B9B58012B3CD901273AE0012768
:100BE000214B1B681B6843B31F4B1B68DB68DC6829
:100BF00063689D4226D3261D304600F0E2FCA36ABE
:100C00001BB104F1180000F0DCFCE36A01229A40F9
:100C10001B49086802430A6003EB83039A003146CC
:100C20001648104400F0A9FCE26A134B1B68DB6A0B
:100C30009A42D4D2D4E70027D2E70E4B4FF0FF32CE
:100C40001A60C0E70B4A1360BDE70E4A1368013310
:100C5000136000270C4B1B6803B101273846F8BD11
:100C600010010020900100205C00002060000020A6
:100C70004C010020480100205800002064000020A2
:100C8000180100200C0100209401002038B5314BE0
:100C90001B680BB972B6FEE700F0ECFC2D4B1A682E
:100CA000013A1A601B68002B4FD12B4B1B680BB904
:100CB00000244BE00024294B1B681BB3274BDB6847
:100CC000DC6804F1180000F07CFC251D284600F0CB
:100CD00078FCE06A01238340214A11680B431360CA
:100CE00000EB800029461F4B03EB800000F045FC21
:100CF000E26A1D4B1B68DB6A9A42DCD31B4B012264
:100D00001A60D8E70CB1FFF789FD194B1C6884B94C
:100D1000164B1C68D4B14FF0E0234FF08052C3F85B
:100D2000042DBFF34F8FBFF36F8F01240EE0013C02
:100D300007D0FFF727FF0028F9D00C4B01221A60DB
:100D4000F5E70B4B00221A60E2E7002400F0ACFC50
:100D5000204638BD10010020040100205001002071
:100D60001801002064000020580000209401002099
:100D70000C010020134B1B6813B310B5FFF7FAFEEC
:100D8000114B1C68FFF782FF24B90E4B1B68002B28
:100D9000F4D110BD00F06EFC0B4BDB68DC68201D4D
:100DA00000F00FFC094A1368013B1360054A136801
:100DB000013B136000F078FC2046FFF745FDE4E7B7
:100DC000704700BF080100207C01002004010020C2
:100DD00008B5FFF7CFFF074B1B68012BF9D94FF080
:100DE000E0234FF08052C3F8042DBFF34F8FBFF3C1
:100DF0006F8FEEE76400002008B52A4B1B681BB11B
:100E0000294B01221A6008BD274B00221A60274B8C
:100E10001B681B6B1A68B2F1A53F03D15A68B2F187
:100E2000A53F14D0214B186819683431FFF7A4F995
:100E30001F4B1B68B3FA83F3DBB2C3F11F0303EB51
:100E400083018A001B498A5852B972B6FEE79A6834
:100E5000B2F1A53FE6D1DB68B3F1A53FE2D1E7E708
:100E6000144903EB830082000A44506840685060D4
:100E700003EB830C4FEA8C0208321144884209D0FC
:100E800003EB83039A000B4B13445B68DA68074B50
:100E90001A60B8E7406862469100064A0A4450600A
:100EA000EEE700BF10010020940100205800002050
:100EB000180100206400002058B110B50C46064A05
:100EC0001168183100F064FB01212046FFF79EFDF8
:100ED00010BD72B6FEE700BF5800002038B5C368E9
:100EE000DC6824B304F11805284600F06AFB144BB3
:100EF0001B68F3B9251D284600F063FBE06A012357
:100F00008340104A11680B43136000EB80002946B0
:100F10000D4B03EB800000F030FBE26A0B4B1B68CB
:100F2000DB6A9A420AD90120094B186038BD72B6B3
:100F3000FEE72946074800F020FBEEE70020F5E732
:100F4000100100201801002064000020580000203B
:100F5000940100205001002030B1044A1268026060
:100F6000034A12684260704772B6FEE74C010020E7
:100F700090010020C8B138B50C460546B9B100F063
:100F800079FB134B1A682368B3F1FF3F19D0286827
:100F900010490968884202D06968914216D9696887
:100FA000501A834205D801240CE072B6FEE772B6EF
:100FB000FEE78A1A134423602846FFF7CDFF00247A
:100FC00000E0002400F070FB204638BD0124F9E762
:100FD000900100204C010020014B01221A60704753
:100FE00094010020002845D038B50446C36A224A3F
:100FF0001268D26A934214D28269002A05DB1E4A23
:101000001268D26AC2F108028261616903EB83034C
:101010001A4A02EB8303994204D0174B1B68DB6A20
:10102000E36238BD251D284600F0CBFA90B1124B83
:101030001B68D86AE06201238340114A11680B43A0
:10104000136000EB800029460C4B03EB800000F09E
:1010500094FAE6E7E36A03EB8301084A52F8212099
:10106000002AE4D101229A4005490B6823EA0203D1
:101070000B60DCE7704700BF5800002064000020D0
:1010800018010020054B1B6823B1044B1A68136D2F
:1010900001331365014B1868704700BF58000020EA
:1010A00038B505460C4600F0E5FA1A4B1B685B6D37
:1010B0002BB9184B1B68012283F85820ACB900F0FB
:1010C000F3FA00F0D7FA134B1B685C6D24B1DDB165
:1010D000104B1B6800225A650E4B1B68002283F8D8
:1010E000582000F0E1FA204638BD11462046FFF7AF
:1010F0008DFC4FF0E0234FF08052C3F8042DBFF376
:101100004F8FBFF36F8FDAE7024B1B68621E5A6581
:10111000E2E700BF58000020E0B1F8B50D460446F4
:1011200000F068FBEFF311864FF0500383F3118852
:10113000BFF36F8FBFF34F8F94F85830DBB20222AA
:1011400084F85820626D01326265012B04D086F369
:101150001188F8BD72B6FEE7A36A0BB172B6FEE75E
:10116000144B1B68E3B9271D384600F02AFAE06AE1
:1011700001238340104A11680B43136000EB800089
:1011800039460E4B03EB800000F0F7F9E26A0C4B96
:101190001B68DB6A9A42DAD945B101232B60D6E796
:1011A00004F11801074800F0E8F9EFE7064B0122C7
:1011B0001A60CCE710010020180100206400002014
:1011C00058000020500100209401002010B5044672
:1011D00000F050FAA36B23B9012400F065FA204611
:1011E00010BD0024F9E708B50346026C62B1084659
:1011F000D9681144D960D3F804C0614501D3196896
:10120000D960D96801F02CF808BD38B5054600F062
:1012100031FA95F8454064B201E0013C64B2002C1B
:101220000ADD6B6A43B105F12400FFF757FE002881
:10123000F3D0FFF7D1FEF0E7FF2385F8453000F04B
:1012400033FA00F017FA95F8444064B201E0013C2B
:1012500064B2002C0ADD2B6943B105F11000FFF7E1
:101260003DFE0028F3D0FFF7B7FEF0E7FF2385F837
:10127000443000F019FA38BDE8B138B50D460446DF
:1012800000F0F8F92368E26B216C01FB023060602A
:101290000020A063A360013A02FB0133E360FF2357
:1012A00084F8443084F84530C5B923692BB900F07F
:1012B000FBF9012038BD72B6FEE704F11000FFF71C
:1012C0000DFE0028F3D04FF0E0234FF08052C3F81A
:1012D000042DBFF34F8FBFF36F8FE8E704F11000C9
:1012E00000F03DF904F1240000F039F9DFE738B5EA
:1012F0001D46049C0B4649B92460E0632364012128
:101300002046FFF7B9FF84F84C5038BD2260F4E75F
:1013100008B972B6FEE7F0B583B00C46154606462E
:1013200089B101FB00F0503000F0E6FA074638B111
:1013300000902B4600F1500221463046FFF7D7FFC0
:10134000384603B0F0BD0846EDE730B170B50C4645
:101350000546036C1BB172B6FEE772B6FEE7036882
:10136000EBB100F047FAEFF311864FF0500383F32F
:101370001188BFF36F8FBFF34F8FAA6BEB6B934254
:101380001FD995F845305BB20132AA63B3F1FF3F34
:101390000AD001335BB285F84530012012E0436882
:1013A000002BDED072B6FEE76B6A0BB9012009E0B4
:1013B00005F12400FFF792FD38B144B1012020600F
:1013C00000E0002086F3118870BD0120FAE70120BB
:1013D000F8E72DE9F04184B0019228B10E46984615
:1013E000044619B100256EE072B6FEE7036C0BB13E
:1013F00072B6FEE7002566E0E56831462046FFF755
:10140000F2FEB8F1000F20D17B1EA36323683BB12D
:1014100023694BB900F048F9012004B0BDE8F08120
:10142000FFF730FE6060F3E704F11000FFF756FDB0
:101430000028EFD04FF0E0234FF08052C3F8042D86
:10144000BFF34F8FBFF36F8FE4E7E560636A002B54
:10145000E0D004F12400FFF741FD0028DAD04FF07E
:10146000E0234FF08052C3F8042DBFF34F8FBFF33A
:101470006F8FCFE700F018F90020CEE702A8FFF742
:101480006BFD012529E0002384F8443031E000237E
:1014900084F8453033E000F0EDF86068FFF7A2FD16
:1014A00000F002F93BE02046FFF7AFFEFFF7EEFB4E
:1014B00009E02046FFF7A9FEFFF7E8FB2046FFF70B
:1014C00085FE002842D100F0D5F8A76B002F93D1FC
:1014D000019B002BCED0002DD0D000F0E5F8FFF717
:1014E00049FB00F0C7F894F8442052B2B2F1FF3F34
:1014F000C9D094F8452052B2B2F1FF3FC7D000F0F6
:10150000D3F801A902A8FFF735FD0028D1D1204664
:10151000FFF75CFE0028C6D02368002BBBD00199E2
:1015200004F12400FFF7C8FC2046FFF76EFEFFF72A
:10153000ADFB0028C7D14FF0E0234FF08052C3F835
:10154000042DBFF34F8FBFF36F8FBCE7002064E71C
:1015500018B108B500F044FA08BD72B6FEE700F114
:10156000080343604FF0FF328260C36003610023D1
:101570000360704700230361704743684B609A68BB
:101580008A605160996008610368013303607047A5
:1015900030B40D68B5F1FF3F11D000F108031C46CF
:1015A0005B681A68AA42FAD963684B6099608C60DC
:1015B0006160086103680133036030BC70470469EF
:1015C000F2E70369416882688A60416851605A683D
:1015D000824205D000220261186801381860704705
:1015E00082685A60F6E70000074B1B68B3F1FF3FC3
:1015F00001D072B6FEE74FF0500383F31188BFF3BA
:101600006F8FBFF34F8FFEE7000000200648006891
:10161000006880F3088862B661B6BFF34F8FBFF3EE
:101620006F8F00DF00BF000008ED00E04FF0807317
:1016300040F8043C21F0010140F8081C034B40F83D
:101640000C3C40F8202C4038704700BFE9150008DA
:10165000074B19680868B0E8F00F80F30988BFF3FA
:101660006F8F4FF0000080F311884EF00D0E704721
:10167000580000204FF0500383F31188BFF36F8FA1
:10168000BFF34F8F074A136801331360012B00D05B
:1016900070474FF0E023D3F8043D13F0FF0FF7D06D
:1016A00072B6FEE700000020054B1B680BB972B64E
:1016B000FEE7013B024A13600BB983F311887047C0
:1016C00000000020000000000000000000000000FA
:1016D000EFF30980BFF36F8F0D4B1A6820E9F00F0D
:1016E00010602DE908404FF0500080F31188FFF79B
:1016F00083FB4FF0000080F31188BDE808401968B3
:101700000868B0E8F00F80F30988BFF36F8F704767
:101710005800002008B54FF0500383F31188BFF341
:101720006F8FBFF34F8FFFF72DFA28B14FF0E023F3
:101730004FF08052C3F8042D002383F3118808BDB5
:101740004FF0E023024A5A6107221A61704700BF36
:101750003F19010000B583B0224B1A78D2B2019232
:10176000FF221A701B78DBB28DF803309DF803302E
:1017700003F050031C4A13701C4B07221A6009E047
:101780001A4A1368013B13609DF803305B00DBB21B
:101790008DF803309DF8033013F0800FF0D1134A19
:1017A00013681B02136003F4E0631360019BDBB258
:1017B0000C4A13704FF0E023D3F8202D42F470024E
:1017C000C3F8202DD3F8202D42F07042C3F8202D0D
:1017D000FFF7B6FF064B00221A60FFF717FFFFF76F
:1017E00003FF00BF00E400E0980100209C010020FE
:1017F00000000020EFF305830F2B08D90A4A9B5CF9
:10180000DBB20A4A12789A4201D972B6FEE74FF06B
:10181000E023D3F80C3D03F4E063054A12689342D9
:1018200001D972B6FEE77047F0E300E098010020AE
:101830009C010020124A12F0070F1ED0D11D21F08A
:101840000701C1F5205313440A460E4802600021E7
:1018500041601344083B23F007030B4803605960C1
:101860001960991A51601360084B1960084B196090
:10187000084B4FF000421A6070474FF42053E4E7E2
:10188000A4010020B0290020A0010020AC290020E4
:10189000A8290020A4290020154B1A461B68834262
:1018A000FBD3516802EB010C844509D0416800EB81
:1018B000010C634509D00360904218D01060704756
:1018C0004068014451601046F0E710B4094C2468A8
:1018D000A3420AD05B681944416013681B68036027
:1018E000904200D0106010BC70470460F8E7704769
:1018F000B0290020A001002070B50546FFF73AF995
:10190000324B1B689BB1324B1B681D4212D135B163
:10191000083515F0070F02D025F0070508359DB1F1
:101920002C4B1B68AB4213D32B4A146816E0FFF70D
:1019300081FFE8E7FFF7AAF90026FEF726FC16F07C
:10194000070F41D072B6FEE7FFF7A0F90026F4E7D3
:10195000FFF79CF90026F0E722461C466368AB427D
:1019600002D22368002BF7D1184B1B68A3420DD07D
:10197000166808362368136063685B1B102B0DD94B
:10198000601910F0070F05D072B6FEE7FFF77EF979
:101990000026D2E743606560FFF77EFF62680D496D
:1019A0000B689B1A0B600D4909688B4201D20B49E9
:1019B0000B60074B1B681343636000232360FFF732
:1019C00065F9002EBBD1B8E7304670BDA0010020FC
:1019D000A4290020A8290020B0290020AC2900203B
:1019E00010B338B50446A0F1080550F8043C0F4A7E
:1019F0001268134201D172B6FEE750F8081C09B113
:101A000072B6FEE723EA020340F8043CFFF7B2F89F
:101A100054F8041C064A13680B4413602846FFF769
:101A20003BFFFFF733F938BD704700BFA429002002
:101A3000A829002040F0BF6040F40030014BD8607E
:101A4000704700BF00ED00E030B5CB7803F00F0227
:101A5000964613F0100F03D091F802E04EEA020E02
:101A60000B7803B30468002301E042610133072BC4
:101A700018D801229A40B1F800C032EA0C05F5D11D
:101A80004FEA830C0F2505FA0CF524EA05040EFA3B
:101A90000CFC4CEA0404CD78282DE6D0482DE5D185
:101AA0000261E3E704600B88FF2B25D9446800231B
:101AB00003E0CD78482D1CD00133072B1BD803F150
:101AC000080C012202FA0CF2B1F800C032EA0C054F
:101AD000F2D14FEA830C0F2505FA0CF524EA050430
:101AE0000EFA0CFC4CEA0404CD78282DE1D14261B9
:101AF000DFE70261E0E7446030BD016170474161AA
:101B00007047000021B1054A9369184390617047FE
:101B1000024A936923EA0000906170470010024076
:101B200021B1054AD3691843D0617047024AD3698D
:101B300023EA0000D06170470010024000B5B0F801
:101B400020E01FFA8EFE2EF0010E1FFA8EFEA0F886
:101B500020E0B0F818C01FFA8CFCB0F820E01FFAA3
:101B60008EFE2CF0F30C1B019BB213434CEA030CCA
:101B7000124A904217D0124B984214D0B0F1804FC5
:101B800011D0A3F5983398420DD003F580639842A5
:101B900009D003F58063984205D02EF00A0319435B
:101BA00041F0010104E02EF00203194341F001016C
:101BB000A0F818C001845DF804FB00BF002C0140B0
:101BC0000034014010B5B0F820C01FFA8CFC2CF096
:101BD000100C1FFA8CFCA0F820C0B0F818E0B0F888
:101BE00020C01FFA8CFC0C01A4B22EF4407E4FEAF8
:101BF0000E5E4FEA1E5E1B039BB243EA0E03120207
:101C000092B21A43134B984219D003F500639842DD
:101C100015D0B0F1804F12D0A3F5983398420ED072
:101C200003F5806398420AD003F58063984206D09A
:101C30002CF0A00C4CEA010C4CF0100C05E02CF040
:101C4000200C4CEA040C4CF0100C0283A0F820C0CD
:101C500010BD00BF002C014030B50C46B0F820C0CC
:101C60001FFA8CFC2CF4807C1FFA8CFCA0F820C09E
:101C7000B0F81CE01FFA8EFE018C89B22502ADB2CD
:101C80002EF0F30E1B019BB213434EEA0303124ADC
:101C9000904219D002F50062904215D0B0F1804F09
:101CA00012D0A2F5983290420ED002F58062904296
:101CB0000AD002F58062904206D021F4206C4CEAF2
:101CC000040141F4807104E021F40071294341F4DE
:101CD00080718383018430BD002C014010B5B0F8C1
:101CE00020C01FFA8CFC2CF4805C1FFA8CFCA0F83E
:101CF00020C0B0F81CE0B0F820C01FFA8CFC0C0328
:101D0000A4B22EF4407E4FEA0E5E4FEA1E5E12022F
:101D100092B242EA0E021B039BB21343144A904252
:101D20001DD002F50062904219D0B0F1804F16D05C
:101D3000A2F59832904212D002F5806290420ED005
:101D400002F5806290420AD02CF4007C4FEA4C4CA1
:101D50004FEA5C4C41EA0C0141F4805104E02CF460
:101D60000051214341F480518383018410BD00BFA1
:101D7000002C014003889BB2214A904212D002F508
:101D8000006290420ED0B0F1804F0BD0A2F5983295
:101D9000904207D002F58062904203D002F5806243
:101DA000904203D123F070034A881343154A9042AE
:101DB00008D002F58062904204D023F440739BB2B5
:101DC000CA88134303808B8883850B8803850C4B5B
:101DD00098420FD003F5006398420BD003F540639F
:101DE000984207D003F58063984203D003F58063DF
:101DF000984201D10B7A038601238382704700BF8A
:101E0000002C01400010004010B4038C9BB223F062
:101E100001039BB20384038C9BB2B0F804C01FFA89
:101E20008CFC028B92B222F073020C88224323F0C6
:101E300002030C8923434C882343154CA0420FD046
:101E400004F50064A0420BD004F54064A04207D022
:101E500004F58064A04203D004F58064A0420FD151
:101E600023F008034C89234323F004038C88234385
:101E70002CF4407C8C894CEA040CCC8944EA0C0C90
:101E8000A0F804C00283CA888286038410BC70470D
:101E9000002C01404FF6FF73838000230380C38032
:101EA0004380037270470023038043808380C38094
:101EB000038143818381C381704700230380438072
:101EC00001228280C3800381704729B103889BB2BD
:101ED00043F001030380704703889BB223F00103A2
:101EE0009BB20380704749B1B0F844306FEA434376
:101EF0006FEA53439BB2A0F844307047B0F84430C7
:101F0000C3F30E03A0F84430704722B183899BB21B
:101F10001943818170478389C94389B219408181FE
:101F20007047038B9BB223F008030B430383704776
:101F300081847047038B9BB223F00C039BB2038315
:101F4000038B9BB20B4303837047038B9BB223F439
:101F500040639BB20383038B9BB2090289B20B439C
:101F600003837047838B9BB223F00C039BB2838364
:101F7000838B9BB20B4383837047838B9BB223F489
:101F800040639BB28383838B9BB2090289B20B436C
:101F90008383704738B505460C460B886BB1042B1C
:101FA00015D0082B1DD00B898A884988FFF796FE2B
:101FB000E1882846FFF7E1FF38BD0B898A88498808
:101FC000FFF7BCFDE1882846FFF7B4FFF4E70B8973
:101FD0008A884988FFF7F6FDE1882846FFF7B5FFB4
:101FE000EAE70B898A884988FFF736FEE1882846A8
:101FF000FFF7B8FFE0E7808E80B27047028A8389DE
:102000000B40114202D01BB90020704700207047DE
:1020100001207047C94389B20182704782B0002312
:10202000019300932C4A136843F4803313602A4BC6
:102030001B6803F400330093019B01330193009B61
:102040001BB9019BB3F5A06FF1D1234B1B6813F4AF
:10205000003F06D001230093009B012B04D002B067
:10206000704700230093F7E71C4B1A6842F01002F8
:102070001A601A6822F003021A601A6842F002021B
:102080001A60A3F580535A685A605A685A605A68B1
:1020900042F480625A605A6822F47C125A605A688C
:1020A00042F4E8125A601A6842F080721A600A4BD1
:1020B0001B6813F0007FFAD0074B5A6822F0030226
:1020C0005A605A6842F002025A60034B5B6803F0A0
:1020D0000C03082BF9D1C2E7001002400020024097
:1020E00008B5FFF79BFF08BD08B5104B1A6842F012
:1020F00001021A6059680E4A0A405A601A6822F0B2
:10210000847222F480321A601A6822F480221A60E3
:102110005A6822F4FE025A604FF41F029A60FFF7D9
:10212000DFFF044B4FF000629A6008BD00100240D0
:102130000000FFF800ED00E01F4B5B6803F00C03AC
:10214000042B15D0082B17D01BB11C4B1C4A1A604E
:1021500002E01A4B1A4A1A60174B5B68C3F3031369
:10216000184AD35CDAB215490B68D3400B6070474C
:10217000124B134A1A60EFE70F4A53685268C3F3D1
:102180008343023312F4803F05D10F4A02FB03F36D
:102190000A4A1360E0E7084A526812F4003F05D08B
:1021A000094A02FB03F3054A1360D5E7044A02FB20
:1021B00003F3024A1360CFE700100240140000202E
:1021C00000127A000400002000093D00002103E015
:1021D0000B4B5B58435004310A480B4B42189A4250
:1021E000F6D30A4A02E0002342F8043B084B9A4225
:1021F000F9D3FFF779FF00F00FF8FDF7B1FF704753
:10220000C022000800000020180000201800002054
:10221000B8290020FEE7000070B500260C4D0D4CDB
:10222000641BA410A64209D100F030F800260A4D24
:102230000A4C641BA410A64205D170BD55F8043B9E
:1022400098470136EEE755F8043B98470136F2E728
:10225000B8220008B8220008B8220008BC220008F2
:102260000A44914200F1FF3300D1704710B511F8D4
:10227000014B914203F8014FF9D110BD03460244CE
:10228000934200D1704703F8011BF9E7F8B500BF8E
:10229000F8BC08BC9E467047F8B500BFF8BC08BC47
:0422A0009E4670479F
:1022A40064687431315F73696D00000049444C45C2
:0422B4000000000026
:0422B80035010008E4
:0422BC001101000804
:1022C000AAAAAAAA0000000000000000010203045C
:0822D0000607080900A24A04F8
:04000005080021CD01
:00000001FF
